:020000040000FA
:06000000DAEF07F0120028
:02002A000000D4
:04002C009294929286
:100030008094809280901200929280948082050E2B
:10004000E66E16EC07F0E5528084050EE66E16ECBF
:1000500007F0E5528092050EE66E16EC07F0E552C9
:1000600080941200929280948092050EE66E16ECB7
:1000700007F0E5528084050EE66E16EC07F0E552B7
:100080008082050EE66E16EC07F0E55280941200B1
:10009000929280948092050EE66E16EC07F0E5527F
:1000A0008084050EE66E16EC07F0E552809412008F
:1000B000929280948082050EE66E16EC07F0E5526F
:1000C0008084050EE66E16EC07F0E552809412006F
:1000D000D9CFE6FFE1CFD9FF040EE12692828082DC
:1000E000808480A21BD0D9CFE9FFDACFEAFFEE2AC5
:1000F000000EEE22EE22EE22D9CFE9FFDACFEAFFA0
:10010000D880FF0EEE54000EEE54000EEE54000E9A
:10011000EE5403E2A7DF010E04D0E3D78094000E73
:1001200000D0146E040EE15C02E2E16AE552E16E79
:100130001450E552E7CFD9FF1200D9CFE6FFE1CF47
:10014000D9FF020EE126DE6ADD6A92928094DE6AB1
:10015000DD6ADECF14F0DDCF15F0080E145C000E62
:10016000155831E2800EE76EFD0EDBCF14F0FE0E67
:10017000DBCF15F0E7501416156A000ED880145422
:10018000000E155402E2808201D08092D950FD0FFA
:10019000E96EFF0EDA20EA6E010ED890EE36ED36EB
:1001A000E806FBE18084020EE66E16EC07F0E552ED
:1001B0008094020EE66E16EC07F0E552DF2A010E7F
:1001C00001E3DB2AC6D7020EE15C02E2E16AE552F6
:1001D000E16EE552E7CFD9FF1200D9CFE6FFE1CFBC
:1001E000D9FF040EE126DE6ADD6A020EDB6A030E29
:1001F000DB6A9282DE6ADD6ADECF14F0DDCF15F0B5
:10020000080E145C000E155820E28094020EE66E73
:1002100016EC07F0E552808480A4FED7D950020F77
:10022000E96EDACFEAFF010ED890EE36ED36E80639
:10023000FBE180A205D0020EDB2A030E01E3DB2ADC
:10024000DF2A010E01E3DB2AD7D7D950FD0FE96E73
:10025000FF0EDA20EA6EEE50ED1002E129DF01D048
:1002600017DF020EDB50146E040EE15C03E200D0D7
:10027000E16AE552E16E1450E552E7CFD9FF120072
:10028000D9CFE6FFE1CFD9FF100EE1260001806B48
:10029000816B826B836B0001846B856B866B876BD4
:1002A000CBDE010EE76EFD0EDBCF14F0FE0EDBCFD2
:1002B00015F0E750141214C0E6FF15C0E6FF3DDF4D
:1002C000E552E552050EE66EFDEC06F0E55200DF64
:1002D000000962E19282010EE66EE66A7EDFE55277
:1002E000E552E66ED950040FE96EDACFEAFFE55227
:1002F000E750EE6EED6A010EE66EE66A6EDFE552DD
:10030000E552E66ED950060FE96EDACFEAFFE55204
:10031000E750EE6EED6A010EE66EE66A5EDFE552CC
:10032000E552E66ED950080FE96EDACFEAFFE552E2
:10033000E750EE6EED6A010EE66EE66A4EDFE552BC
:10034000E552E66ED9500A0FE96EDACFEAFFE552C0
:10035000E750EE6EED6A010EE66EE66A3EDFE552AC
:10036000E552E66ED9500C0FE96EDACFEAFFE5529E
:10037000E750EE6EED6A000EE66EE66A2EDFE5529D
:10038000E552E66ED9500E0FE96EDACFEAFFE5527C
:10039000E750EE6EED6A66DE040EDBCF16F0050E5A
:1003A000DBCF17F016C017F0166A060EDB501610DA
:1003B000146E070EDB501710156E14C0DEFF15C04B
:1003C000DDFF0A0EDBCF16F00B0EDBCF17F016C0E9
:1003D00017F0166A0C0EDB501610146E0D0EDB5063
:1003E0001710156E020E14C0DBFF030E15C0DBFFE5
:1003F0001C6A1D6A2F0E1E6E430E1F6E000EDFCF8D
:1004000008F0010EDBCF09F0E3EC02F007C020F0AA
:1004100008C021F009C022F00AC023F020C00CF06F
:1004200021C00DF022C00EF023C00FF01CC007F059
:100430001DC008F01EC009F01FC00AF04BEC03F00D
:1004400007C018F008C019F009C01AF00AC01BF064
:100450000C6A0D687F0E0E6E470E0F6E18C007F007
:1004600019C008F01AC009F01BC00AF0F8EC02F03D
:1004700007C014F008C015F009C016F00AC017F044
:100480000C6A0D6A340E0E6E420E0F6E14C007F029
:1004900015C008F016C009F017C00AF0B8EC03F058
:1004A00007C080F008C081F009C082F00AC083F064
:1004B000186A196AC80E1A6E420E1B6E020EDBCF46
:1004C00008F0030EDBCF09F0E3EC02F007C01CF0EC
:1004D00008C01DF009C01EF00AC01FF01CC00CF0BF
:1004E0001DC00DF01EC00EF01FC00FF018C007F0A9
:1004F00019C008F01AC009F01BC00AF04BEC03F059
:1005000007C014F008C015F009C016F00AC017F0B3
:100510000C6A0D687F0E0E6E470E0F6E14C007F04A
:1005200015C008F016C009F017C00AF0F8EC02F088
:1005300007C084F008C085F009C086F00AC087F0C3
:10054000020EDB6A030EDB6ADE6ADD6A8080010E62
:10055000E66E8DEC06F0E552100EE15C02E2E16A17
:10056000E552E16EE552E7CFD9FF1200D9CFE6FFA1
:10057000E1CFD9FF61DDFD0EDBCFE6FFFE0EDBCF65
:10058000E6FFDBDDE552E552A3DDFB0EDBCFE6FF48
:10059000FC0EDBCFE6FFD1DDE552E55299DDF90E29
:1005A000DBCFE6FFFA0EDBCFE6FFC7DDE552E55213
:1005B0008FDD58DD010EE66E8DEC06F0E552E5525A
:0605C000E7CFD9FF120095
:0A05C600019E08D0019E09AE05D089
:1005D000086C091EE86A0922018E09C003F008C0F0
:1005E00002F0136A126A8E0E046E056A3FEF05F080
:1005F000016A7BEC05F093EC05F001B623EF05F002
:1006000001A205D001BA23EF05F02AEF05F001BAE7
:1006100036EF05F001A005D001B823EF05F036EF65
:1006200005F001B82AEF05F0056A7F0E0A24046E72
:10063000E86A05220F50045EE86A055A1A0E106E29
:100640000A6A126A136A026A036A0C50075E0D5046
:10065000085A0E50095A000E0A5A09E70C5007268C
:100660000D5008220E500922000E0A2201D0128AD3
:10067000D8900736083609360A36D890123613361F
:1006800002360336102EE1D7095008100710D8A4FF
:10069000128A3FEF05F0016A7BEC05F093EC05F060
:1006A00001B623EF05F001A205D001B823EF05F054
:1006B0002AEF05F001AA05D001B023EF05F02AEFDB
:1006C00005F001B002D001A802D036EF05F0056AAE
:1006D0000F500A24046EE86A05227E0E045EE86A62
:1006E000055A126A136A026A036A0E500902F4CFAD
:1006F00003F0F3CF02F00D500902F3501326F4502B
:100700000222000E03220E500802F3501326F4506A
:100710000222000E03220C500902F3501226F4505C
:100720001322000E022203220D500802F35012265B
:10073000F4501322000E022203220E500702F3503F
:100740001226F4501322000E022203220C5008023B
:10075000F4501226000E1322022203220D5007022B
:10076000F4501226000E1322022203223FEF05F05E
:100770000F7E016A7BEC05F093EC05F001B623EFE8
:1007800005F001A20AD001AA03D001BE23EF05F0B3
:1007900001A42FEF05F02CEF05F001AA05D001AC64
:1007A0002FEF05F02CEF05F001A00AD001A808D02A
:1007B00001BE04D001A402D038EF05F03CEF05F0F3
:1007C000126A056A0F500A5C116E10E307C013F03D
:1007D00008C002F009C003F00AC010F00CC007F016
:1007E0000DC008F00EC009F0013A09D00CC013F09A
:1007F0000DC002F00EC003F00FC010F0116C019E8E
:1008000001BC018E10C004F001B06BEF05F01A0EB0
:1008100011606BEF05F0046A0A6A01A408D0076C46
:10082000081E091E0A1EE86A082209220A2201ACD3
:1008300008D0136C021E031E041EE86A0222032263
:100840000422066A115207E00A34093208320732DC
:100850000632112EF9D707501326085002220950EC
:1008600003220A50042206C012F0019E04AE0BD0EF
:10087000126C131E021E031E041EE86A13220222BB
:1008800003220422018E04A006D0D8800332023253
:1008900013321232102A10C004F03FEF05F0006A44
:1008A0000EAE5AEF04F00C6C0D1E0E1EE86A0D22FF
:1008B0000E22001E09AE64EF04F0076C081E091E2C
:1008C000E86A08220922001E7CEC07F009BE77EFD7
:1008D00004F000AE000C076C081E091EE86A08222E
:1008E0000922036C041E051E04220522000C00BE12
:1008F0006BEF04F00188FF0C09C013F008C012F080
:1009000007C011F007500C02F4CF05F0F3CF04F04C
:1009100008500D02F4CF07F0F3CF06F00C02F350AD
:100920000526F4500622E86A072211500D02F35002
:100930000526F4500622E86A072209500C02F350FB
:100940000626F450072209500D02086AE86A0822B8
:10095000F3500726F450082211500E02F3500626D9
:10096000F4500722096AE86A0822092212500E028E
:10097000F3500726F4500822E86A092213500E02A9
:10098000F3500826F4500922000CCEEC04F001B616
:10099000000C01B0000C01B4000C010C016A7BECEE
:1009A00005F093EC05F001B6120001AE08D001A0ED
:1009B00004D001A802D001801200019012000F5053
:1009C0000A5C0BE10E50095C08E10D50085C05E182
:1009D0000C50075C02E101801200D8A002D0018E09
:1009E00010D00A500FC00AF00F6E09500EC009F067
:1009F0000E6E08500DC008F00D6E07500CC007F0C9
:100A00000C6E0F500A5C10E0FF0F09E0019001B47A
:100A100003D001AE0184120001AE019412000F2A2E
:100A2000D8900E320D320C320C50075E0D50085A21
:100A30000E50095A09BEEAD7D8900736083609364B
:100A40000A2EF8D7C8D77F0E0A6EFF0E096E086E01
:100A5000076E12007F0E01BEFF0E0A6E02D07F0EDF
:100A60000A6E800E096E086A076AF3D701AE04D0D9
:100A7000800E0A6E096AF7D70A6A096AF4D703502A
:100A8000021013101210F8E005BEF0D703BE0CD010
:100A900004500510EBE0D8901236133602360336B8
:100AA0000406D8A00506F2D70550D4E10428D2E008
:100AB00012AE11D07F0E121402E113A00CD0132A33
:100AC000E86A0222032207E3D8800332023213329B
:100AD000042A0428BFE00450C9E013C007F002C094
:100AE00008F00334096E04300A6E09320A9E01BE12
:100AF0000A8E29EF05F009360A3602E30184017EE9
:100B000006E101800A6A096A086A076A12000A286F
:100B100003E0D88009321200D890093202E1018244
:100B20001200018612000E360F3602E3018C017EA0
:100B300006E101880F6A0E6A0D6A0C6A12000F281E
:100B400003E0D8800E321200D8900E32EAE1018A1A
:020B5000120091
:0E0B5200730ED36E880E0001886F896B99ECCC
:100B600007F016EC00F08080C8D8140EE66E8DEC0D
:100B700006F0E5528090C9D8010EE66E8DEC06F0C5
:100B8000E5520D0EE66EE66A2C0EE66EE66A88C049
:100B9000E6FF89C0E6FFB6EC02F0146E060EE15ED9
:100BA000145088C0E6FF89C0E6FF40EC01F0E55232
:100BB000E5520C6A0D6AD80E0E6E410E0F6E80C0A3
:100BC00007F081C008F082C009F083C00AF0C5ECCC
:100BD00004F0010A07E08180010EE66E8DEC06F05C
:100BE000E55289D00C6A0D6AD80E0E6E410E0F6E5A
:100BF00080C007F081C008F082C009F083C00AF00D
:100C0000C5EC04F0010A19E10C6A0D6AE00E0E6EE3
:100C1000410E0F6E80C007F081C008F082C009F05D
:100C200083C00AF0C5EC04F0010A07E08182010EDE
:100C3000E66E8DEC06F0E5525ED00C6A0D6AE00EB1
:100C40000E6E410E0F6E80C007F081C008F082C0AA
:100C500009F083C00AF0C5EC04F0010A19E10C6A3E
:100C60000D6AE80E0E6E410E0F6E80C007F081C057
:100C700008F082C009F083C00AF0C5EC04F0010A54
:100C800007E08184010EE66E8DEC06F0E55233D06C
:100C90000C6A0D6AE80E0E6E410E0F6E80C007F0F2
:100CA00081C008F082C009F083C00AF0C5EC04F0EE
:100CB000010A18E10C6A0D6A0E6A420E0F6E80C0BE
:100CC00007F081C008F082C009F083C00AF0C5ECCB
:100CD00004F0010A07E08186010EE66E8DEC06F055
:100CE000E55209D08180818281848186010EE66E81
:100CF0008DEC06F0E5523ED712008180818281841E
:100D000081868188818A818C120081908192819470
:0A0D100081968198819A819C12005F
:060D1A00D9CFE6FFE1CF96
:100D2000D9FFFE0EDBCF14F0156A166AD00E0C6EDA
:100D3000070E0D6E0E6A14C007F015C008F016C03D
:100D400009F07CEC04F004C014F005C015F006C0F6
:100D500016F0E80E0C6E030E0D6E0E6A14C007F04E
:100D600015C008F016C009F04FEC04F007C014F0ED
:100D700008C015F009C016F01450E66EB3EC07F089
:100D8000E552E552E7CFD9FF1200D9CFE6FFE1CF18
:100D9000D9FFFE0EDBCF14F0156A166AD00E0C6E6A
:100DA000070E0D6E0E6A14C007F015C008F016C0CD
:100DB00009F07CEC04F004C014F005C015F006C086
:100DC00016F0E80E0C6E030E0D6E0E6A14C007F0DE
:100DD00015C008F016C009F04FEC04F007C014F07D
:100DE00008C015F009C016F01450E66ECAEC07F002
:100DF000E552E552E7CFD9FF1200D9CFE6FFE1CFA8
:100E0000D9FFFE0EDBCF14F0156A166A030ED890D8
:100E1000143615361636E806FAE11450E66EE6EC9E
:100E200007F0E552E552E7CFD9FF1200D9CFE6FF30
:100E3000E1CFD9FFFE0EDBCF14F0156A166A176AF0
:100E4000146A156A166A176A1450E66EE6EC07F023
:0A0E5000E552E552E7CFD9FF12008A
:060E5A002A0EF66E000EE8
:100E6000F76E000EF86E00010900F5508F6F090053
:100E7000F550906F03E18F6701D03DD00900F55028
:100E80008A6F0900F5508B6F0900F5508C6F0900CF
:100E90000900F550E96E0900F550EA6E09000900F5
:100EA0000900F5508D6F0900F5508E6F090009009B
:100EB000F6CF91F0F7CF92F0F8CF93F08AC0F6FF1B
:100EC0008BC0F7FF8CC0F8FF00018D5302E18E53F9
:100ED00007E00900F550EE6E8D07F8E28E07F9D7AE
:100EE00091C0F6FF92C0F7FF93C0F8FF00018F0793
:080EF000000E905BBFD7120059
:080EF800056A046A036A180E82
:100F0000E76ED890073608360936033604360536BC
:100F10000C50035C0D5004580E50055807E30C505C
:100F2000035E0D50045A0E50055A072AE72EEAD7E1
:020F30001200AD
:0E0F32000F0EC16E070EB46EF19E809092906D
:100F400080929292809492948190939081929392C5
:100F5000819493948196939681989398819A939A89
:060F6000819C939C12002D
:0A0F6600FF0EE350256EEF0E01D0E0
:100F7000F30EE76EE72EBAEF07F00C0E246EE76A69
:100F8000E72EC0EF07F0242EBFEF07F0252EB8EFB5
:040F900007F0120054
:0C0F9400FF0EE350256E480E01D04C0EFD
:100FA000E76EE72EFED7E76AE72EFED7252EF7D7A6
:040FB000000012002B
:0C0FB40015EE00F025EE00F0F86A019C3C
:0C0FC0002DEC07F0A9EC05F0FDD71200A5
:040FCC00FF0EE350E1
:100FD000E84E1200000000D000D000D0E82EFAD772
:020FE0001200FD
:00000001FF
