:020000040000FA
:1000000036EF09F01200FFFF3AEF06F01200FFFF93
:10001000FFFFFFFFFFFFFFFF1EEF07F01200FFFFD4
:10002000FFFFFFFFFFFFFFFFFFFF01009A1200002D
:10003000800000001B000000959083928380020ED8
:10004000E66E37EC08F0E5528382020EE66E37EC7E
:1000500008F0E5528390020EE66E37EC08F0E552A8
:1000600083921200959083928390020EE66E37EC95
:1000700008F0E5528382020EE66E37EC08F0E55296
:100080008380020EE66E37EC08F0E5528392120090
:10009000959083928390020EE66E37EC08F0E5525D
:1000A0008382020EE66E37EC08F0E552839212006E
:1000B000959083928380020EE66E37EC08F0E5524D
:1000C0008382020EE66E37EC08F0E552839212004E
:1000D000D9CFE6FFE1CFD9FF040EE12695808380DA
:1000E000838283A01BD0D9CFE9FFDACFEAFFEE2AC3
:1000F000000EEE22EE22EE22D9CFE9FFDACFEAFFA0
:10010000D880FF0EEE54000EEE54000EEE54000E9A
:10011000EE5403E2A7DF010E04D0E3D78392000E72
:1001200000D0146E040EE15C02E2E16AE552E16E79
:100130001450E552E7CFD9FF1200D9CFE6FFE1CF47
:10014000D9FF020EE126DE6ADD6A95908392DE6AAF
:10015000DD6ADECF14F0DDCF15F0080E145C000E62
:10016000155831E2800EE76EFD0EDBCF14F0FE0E67
:10017000DBCF15F0E7501416156A000ED880145422
:10018000000E155402E2838001D08390D950FD0FF8
:10019000E96EFF0EDA20EA6E010ED890EE36ED36EB
:1001A000E806FBE18382020EE66E37EC08F0E552CA
:1001B0008392020EE66E37EC08F0E552DF2A010E5C
:1001C00001E3DB2AC6D7020EE15C02E2E16AE552F6
:1001D000E16EE552E7CFD9FF1200D9CFE6FFE1CFBC
:1001E000D9FF040EE126DE6ADD6A020EDB6A030E29
:1001F000DB6A9580DE6ADD6ADECF14F0DDCF15F0B4
:10020000080E145C000E155820E28392020EE66E72
:1002100037EC08F0E552838283A2FED7D950020F53
:10022000E96EDACFEAFF010ED890EE36ED36E80639
:10023000FBE183A005D0020EDB2A030E01E3DB2ADB
:10024000DF2A010E01E3DB2AD7D7D950FD0FE96E73
:10025000FF0EDA20EA6EEE50ED1002E129DF01D048
:1002600017DF020EDB50146E040EE15C03E200D0D7
:10027000E16AE552E16E1450E552E7CFD9FF120072
:10028000D9CFE6FFE1CFD9FF100EE12600019B6B2D
:100290009C6B9D6B9E6B00019F6BA06BA16BA26B17
:1002A000CBDE010EE76EFD0EDBCF14F0FE0EDBCFD2
:1002B00015F0E750141214C0E6FF15C0E6FF3DDF4D
:1002C000E552E552020EE66E1EEC08F0E55200DF44
:1002D000000962E19580010EE66EE66A7EDFE55276
:1002E000E552E66ED950040FE96EDACFEAFFE55227
:1002F000E750EE6EED6A010EE66EE66A6EDFE552DD
:10030000E552E66ED950060FE96EDACFEAFFE55204
:10031000E750EE6EED6A010EE66EE66A5EDFE552CC
:10032000E552E66ED950080FE96EDACFEAFFE552E2
:10033000E750EE6EED6A010EE66EE66A4EDFE552BC
:10034000E552E66ED9500A0FE96EDACFEAFFE552C0
:10035000E750EE6EED6A010EE66EE66A3EDFE552AC
:10036000E552E66ED9500C0FE96EDACFEAFFE5529E
:10037000E750EE6EED6A000EE66EE66A2EDFE5529D
:10038000E552E66ED9500E0FE96EDACFEAFFE5527C
:10039000E750EE6EED6A66DE040EDBCF16F0050E5A
:1003A000DBCF17F016C017F0166A060EDB501610DA
:1003B000146E070EDB501710156E14C0DEFF15C04B
:1003C000DDFF0A0EDBCF16F00B0EDBCF17F016C0E9
:1003D00017F0166A0C0EDB501610146E0D0EDB5063
:1003E0001710156E020E14C0DBFF030E15C0DBFFE5
:1003F0001C6A1D6A2F0E1E6E430E1F6E000EDFCF8D
:1004000008F0010EDBCF09F0E2EC02F007C020F0AB
:1004100008C021F009C022F00AC023F020C00CF06F
:1004200021C00DF022C00EF023C00FF01CC007F059
:100430001DC008F01EC009F01FC00AF04AEC03F00E
:1004400007C018F008C019F009C01AF00AC01BF064
:100450000C6A0D687F0E0E6E470E0F6E18C007F007
:1004600019C008F01AC009F01BC00AF0F7EC02F03E
:1004700007C014F008C015F009C016F00AC017F044
:100480000C6A0D6A340E0E6E420E0F6E14C007F029
:1004900015C008F016C009F017C00AF0B7EC03F059
:1004A00007C09BF008C09CF009C09DF00AC09EF0F8
:1004B000186A196AC80E1A6E420E1B6E020EDBCF46
:1004C00008F0030EDBCF09F0E2EC02F007C01CF0ED
:1004D00008C01DF009C01EF00AC01FF01CC00CF0BF
:1004E0001DC00DF01EC00EF01FC00FF018C007F0A9
:1004F00019C008F01AC009F01BC00AF04AEC03F05A
:1005000007C014F008C015F009C016F00AC017F0B3
:100510000C6A0D687F0E0E6E470E0F6E14C007F04A
:1005200015C008F016C009F017C00AF0F7EC02F089
:1005300007C09FF008C0A0F009C0A1F00AC0A2F057
:10054000020EDB6A030EDB6ADE6ADD6A050EE66E0A
:100550001EEC08F0E552100EE15C02E2E16AE552A1
:10056000E16EE552E7CFD9FF1200D9CFE6FFE1CF28
:10057000D9FF62DDFD0EDBCFE6FFFE0EDBCFE6FF2F
:10058000DCDDE552E552A4DDFB0EDBCFE6FFFC0E21
:10059000DBCFE6FFD2DDE552E5529ADDF90EDBCF87
:1005A000E6FFFA0EDBCFE6FFC8DDE552E55290DD4F
:1005B00059DD020EE66E1EEC08F0E552E552E7CF7B
:1005C000D9FF1200019E08D0019E09AE05D0086C2B
:1005D000091EE86A0922018E09C003F008C002F072
:1005E000136A126A8E0E046E056A35EF05F0016A11
:1005F00071EC05F089EC05F001B619EF05F001A2E8
:1006000005D001BA19EF05F020EF05F001BA2CEF83
:1006100005F001A005D001B819EF05F02CEF05F0A9
:1006200001B820EF05F0056A7F0E0A24046EE86A1F
:1006300005220F50045EE86A055A1A0E106E0A6A07
:10064000126A136A026A036A0C50075E0D50085A58
:100650000E50095A000E0A5A09E70C5007260D5091
:1006600008220E500922000E0A2201D0128AD890C8
:100670000736083609360A36D8901236133602364F
:100680000336102EE1D7095008100710D8A4128A9B
:1006900035EF05F0016A71EC05F089EC05F001B663
:1006A00019EF05F001A205D001B819EF05F020EF10
:1006B00005F001AA05D001B019EF05F020EF05F013
:1006C00001B002D001A802D02CEF05F0056A0F504E
:1006D0000A24046EE86A05227E0E045EE86A055A62
:1006E000126A136A026A036A0E500902F4CF03F019
:1006F000F3CF02F00D500902F3501326F4500222FA
:10070000000E03220E500802F3501326F45002226A
:10071000000E03220C500902F3501226F45013224B
:10072000000E022203220D500802F3501226F4504C
:100730001322000E022203220E500702F35012264B
:10074000F4501322000E022203220C500802F4502F
:100750001226000E1322022203220D500702F4502B
:100760001226000E13220222032235EF05F00F7E1F
:10077000016A71EC05F089EC05F001B619EF05F09E
:1007800001A20AD001AA03D001BE19EF05F001A40D
:1007900025EF05F022EF05F001AA05D001AC25EF09
:1007A00005F022EF05F001A00AD001A808D001BE93
:1007B00004D001A402D02EEF05F032EF05F0126A4A
:1007C000056A0F500A5C116E10E307C013F008C0F1
:1007D00002F009C003F00AC010F00CC007F00DC011
:1007E00008F00EC009F0013A09D00CC013F00DC09A
:1007F00002F00EC003F00FC010F0116C019E01BC9E
:10080000018E10C004F001B061EF05F01A0E116006
:1008100061EF05F0046A0A6A01A408D0076C081E9B
:10082000091E0A1EE86A082209220A2201AC08D021
:10083000136C021E031E041EE86A02220322042215
:10084000066A115207E00A340932083207320632CA
:10085000112EF9D7075013260850022209500322FF
:100860000A50042206C012F0019E04AE0BD0126C96
:10087000131E021E031E041EE86A13220222032214
:100880000422018E04A006D0D88003320232133233
:100890001232102A10C004F035EF05F0006A0EAED7
:1008A00057EF04F00D6C0E1EE86A0E22001E09AE12
:1008B0005FEF04F0086C091EE86A0922001E10ECC4
:1008C00009F009BE6FEF04F000AE000C086C091EC1
:1008D000E86A0922046C051EE86A0522000C00BEC5
:1008E00066EF04F00188FF0C006A0EAE7FEF04F0A3
:1008F0000C6C0D1E0E1EE86A0D220E22001E09AEA3
:1009000089EF04F0076C081E091EE86A0822092214
:10091000001EDCEC08F009BE9CEF04F000AE000CF9
:10092000076C081E091EE86A08220922036C041ECF
:10093000051E04220522000C00BE90EF04F0018881
:10094000FF0C09C013F008C012F007C011F00750E7
:100950000C02F4CF05F0F3CF04F008500D02F4CFF1
:1009600007F0F3CF06F00C02F3500526F4500622F0
:10097000E86A072211500D02F3500526F4500622B2
:10098000E86A072209500C02F3500626F4500722A9
:1009900009500D02086AE86A0822F3500726F4504D
:1009A000082211500E02F3500626F4500722096A5D
:1009B000E86A0822092212500E02F3500726F4506A
:1009C0000822E86A092213500E02F3500826F45058
:1009D0000922000C016A71EC05F001B6F4EF04F095
:1009E00001A20ED001B405D07F0E096EFF0E086E75
:1009F0001FD0800E096E086A1BD0096A086A18D0D9
:100A000001B0FBD78F0E0A60EDD77E0E0A64F5D7D2
:100A10008E0E0A5C05E0D890093208320A2AF8D70F
:100A200001A406D0086C091EE86A092209AEE5D7C0
:100A300012007F0E0A6EFF0E096E086E076E12001E
:100A40007F0E01BEFF0E0A6E02D07F0E0A6E800E70
:100A5000096E086A076AF3D701AE04D0800E0A6EE9
:100A6000096AF7D70A6A096AF4D70350021013100B
:100A70001210F8E005BEF0D703BE0CD004500510EC
:100A8000EBE0D89012361336023603360406D8A0AF
:100A90000506F2D70550D4E10428D2E012AE11D0F9
:100AA0007F0E121402E113A00CD0132AE86A02226E
:100AB000032207E3D880033202321332042A0428C7
:100AC000BFE00450C9E013C007F002C008F00334CF
:100AD000096E04300A6E09320A9E01BE0A8E1FEFAB
:100AE00005F009360A3602E30184017E06E1018041
:100AF0000A6A096A086A076A12000A2803E0D880AD
:100B000009321200D890093202E1018212000186F6
:100B100012000E360F3602E3018C017E06E10188D9
:100B20000F6A0E6A0D6A0C6A12000F2803E0D88063
:100B30000E321200D8900E32EAE1018A12009DECCA
:100B400008F0880E0001A96FAA6BD58ECA840D0E1D
:100B5000E66EE66A2C0EE66EE66AA9C0E6FFAAC05B
:100B6000E6FFB5EC02F0146E060EE15E1450A9C06B
:100B7000E6FFAAC0E6FF40EC01F0E552E552010EA7
:100B8000E66E1EEC08F0E5520A0E146E156A9BC064
:100B900007F09CC008F09DC009F09EC00AF0EAEC86
:100BA00004F014C00DF015C00EF04EEC04F008C0B7
:100BB00094F09BC007F09CC008F09DC009F09EC057
:100BC0000AF0EAEC04F008C014F009C015F00A0EAF
:100BD0000D6E0E6A14C008F015C009F04EEC04F05A
:100BE00004C014F005C015F014C095F09BC007F0C8
:100BF0009CC008F09DC009F09EC00AF0EAEC04F029
:100C000008C014F009C015F0000115509319E8AEA2
:100C100002D0933504D09251145C9351155805E3DA
:100C20009251931102E0848022D092C014F093C0BC
:100C300015F0020E145E000E155A9BC007F09CC002
:100C400008F09DC009F09EC00AF0EAEC04F008C06C
:100C500016F009C017F015501718E8AE02D0173477
:100C600004D01650145C1750155801E38490C282CA
:100C70006ED71200DACFE4FFE2CFDAFFE9CFE4FF6C
:100C8000EACFE4FFF6CFE4FFF7CFE4FFF3CFE4FFD2
:100C9000F4CFE4FFFACFE4FF00EE00F0140EE80416
:100CA00003E3EECFE4FFFBD7E6529EACADD09D9CB4
:100CB0009E9C030E00018FAF02D0D89003D08E5DB2
:100CC000000E8F5943E30001A351A525246EA451C2
:100CD000A621256E2450A7250001926F2550000102
:100CE000A8210001936F030E0D6E0E6A92C008F0EA
:100CF00093C009F04EEC04F008C092F009C093F0E4
:100D00000A0E246E256A92C008F093C009F024C030
:100D10000DF025C00EF04EEC04F008C096F092C025
:100D200024F093C025F00A0E0D6E0E6A24C008F060
:100D300025C009F04EEC04F004C024F005C025F0F5
:100D400024C097F000018E6B8F6B5CD0C450906F05
:100D5000916B020ED89090379137E806FBE1060EB2
:100D6000C3CFE7FF070B04E0E742E79EE806FCE19C
:100D7000E750246E256A24500001901325509113EA
:100D80000A0E286E296A90C008F091C009F028C0A8
:100D90000DF029C00EF04EEC04F0E4EC02F007C0B8
:100DA00024F008C025F009C026F00AC027F09E0EE6
:100DB0000C6EEF0E0D6E470E0E6E3F0E0F6E24C0C2
:100DC00007F025C008F026C009F027C00AF04AEC59
:100DD00003F0EAEC04F008C090F009C091F00001C3
:100DE0008EC0E9FF8FC0EAFF8E2B000E8F23D890B4
:100DF000E936EA36A30EE926000EEA2290C0EEFF9D
:100E000091C0EDFF9E9C9D8CE55200EE13F0140EF8
:100E1000E80403E3E5CFEDFFFBD7E5CFFAFFE5CF2D
:100E2000F4FFE5CFF3FFE5CFF7FFE5CFF6FFE5CF22
:100E3000EAFFE5CFE9FFE5CFDAFF1100D8CFE4FF05
:100E4000E0CFE4FFE46EDACFE4FFE2CFDAFFE9CFF0
:100E5000E4FFEACFE4FFE6529EA24ED09D92CA94F0
:100E60009E920001982B000E99230F0E985D000EA4
:100E700099593FE3986B996B838483868288828A31
:100E80009A51030A2BE0010A1DE0030A0FE0010A50
:100E900001E02FD083949551EA6A800FE96E000E2D
:100EA000EA22EF50816E010E9A6F23D083969451FF
:100EB000EA6A800FE96E000EEA22EF50816E020EA0
:100EC0009A6F17D082989751EA6A800FE96E000EE8
:100ED000EA22EF50816E030E9A6F0BD0829A9651E0
:100EE000EA6A800FE96E000EEA22EF50816E9A6B7B
:100EF00000D0CC6ACA849D82F2A423D0F294F29AE4
:100F0000CB50BE5C04E300018A698B6907D0BE50F8
:100F1000000804E3010E00018A6F8B6B0001010ED3
:100F20008A1901E18B5104E1050EBE24BE6E07D083
:100F30008A1D01E18B1D03E1050EBE5CBE6EF294BD
:100F4000F28AE552E5CFEAFFE5CFE9FFE5CFDAFF28
:100F5000E550E5CFE0FFE5CFD8FF1000D9CFE6FFA1
:100F6000E1CFD9FFFE0EDBCF14F0156A166AD00E62
:100F70000C6E070E0D6E0E6A14C007F015C008F057
:100F800016C009F0A1EC04F004C014F005C015F07F
:100F900006C016F0E80E0C6E030E0D6E0E6A14C03D
:100FA00007F015C008F016C009F074EC04F007C093
:100FB00014F008C015F009C016F01450E66EF9ECF4
:100FC00008F0E552E552E7CFD9FF1200D9CFE6FF8E
:100FD000E1CFD9FFFE0EDBCF14F0156A166AD00EF2
:100FE0000C6E070E0D6E0E6A14C007F015C008F0E7
:100FF00016C009F0A1EC04F004C014F005C015F00F
:1010000006C016F0E80E0C6E030E0D6E0E6A14C0CC
:1010100007F015C008F016C009F074EC04F007C022
:1010200014F008C015F009C016F01450E66E26EC56
:1010300009F0E552E552E7CFD9FF1200D9CFE6FF1C
:10104000E1CFD9FFFE0EDBCF14F0156A166A030E4E
:10105000D890143615361636E806FAE11450E66EC6
:1010600042EC09F0E552E552E7CFD9FF1200D9CFA3
:10107000E6FFE1CFD9FFFE0EDBCF14F0156A166A4A
:10108000176A146A156A166A176A1450E66E42ECFB
:1010900009F0E552E552E7CFD9FF12002A0EF66EAD
:1010A000000EF76E000EF86E00010900F550B06FEB
:1010B0000900F550B16F03E1B06701D03DD00900E0
:1010C000F550AB6F0900F550AC6F0900F550AD6FEE
:1010D00009000900F550E96E0900F550EA6E0900B3
:1010E00009000900F550AE6F0900F550AF6F090017
:1010F0000900F6CFB2F0F7CFB3F0F8CFB4F0ABC041
:10110000F6FFACC0F7FFADC0F8FF0001AE5302E13F
:10111000AF5307E00900F550EE6EAE07F8E2AF07F7
:10112000F9D7B2C0F6FFB3C0F7FFB4C0F8FF0001B3
:10113000B007000EB15BBFD71200839095908392E9
:101140009592928096909494939093929394939680
:101150009398939A939C959495969498949A80904A
:101160008490829481908192819481968198819AD1
:10117000819C839483968298829A730ED36E010E1B
:10118000C26E0C0EC16E210EC06E94940C0EBD6E1C
:10119000BE6A0F0ED56E010ECA6E960ECB6ECC6A6D
:1011A000D08E9E9C9D8C9D829E929F92F194F294F3
:1011B000F28AF28CF28E1200056A046A036A180E33
:1011C000E76ED890073608360936033604360536FA
:1011D0000C50035C0D5004580E50055807E30C509A
:1011E000035E0D50045A0E50055A072AE72EEAD71F
:1011F0001200FF0EE3502B6EEF0E01D0F30EE76EE0
:10120000E72E00EF09F00C0E2A6EE76AE72E06EFD4
:1012100009F02A2E05EF09F02B2EFEEF08F0120040
:10122000056A046A100EE76ED8900836093604364F
:1012300005360D50045C0E50055805E30D50045E54
:101240000E50055A082AE72EF0D71200FF0EE35081
:101250002B6E480E01D04C0EE76EE72EFED7E76AE4
:10126000E72EFED72B2EF7D70000120015EE00F068
:1012700025EE00F0F86A019C4EEC08F09FEC05F0BA
:10128000FDD71200FF0EE350E84E1200000000D020
:1012900000D000D0E82EFAD712003F065B4F666DF3
:1012A0007D077F6F010000000000000000000000CB
:1012B0000000000000FFFFFFFFFFFFFFFFFFFFFF39
:1012C000FFFFFFFFFFFFFFFFFFFFFFFFFFFFFFFF2E
:1012D000FFFFFFFFFFFFFFFFFFFFFFFFFFFFFFFF1E
:1012E000FFFFFFFFFFFFFFFFFFFFFFFFFFFFFFFF0E
:1012F000FFFFFFFFFFFFFFFFFFFFFFFFFFFFFFFFFE
:0200000400F00A
:020000040030CA
:0E0000000088131E008181000FC00FE00F402A
:020000040020DA
:08000000FFFFFFFFFFFFFFFF00
:00000001FF
